:020000040000FA
:0300000002008F6C
:10004B000201B700000080FBE49003017803790103
:10005B008002F0A3D8FCD9FA7A037B0390009E7838
:10006B001079018015E493A3AD82AE838A828B83D2
:10007B00F0A3AA82AB838D828E83D8E9D9E71202D3
:10008B000912004E75D00075813F750901750A0381
:10009B000200535541525430B7A2CBCDCAFDBEDD41
:1000AB000A00C0D02509C582C0E0E50A34FFC5832C
:1000BB00C0E0E509C3958224F310AF0885830A8558
:1000CB008209800885830A858209D2AFC8F0A3E92B
:1000DB00F0A3EAF0A3EBF0A37908E709F0A3D8FAB1
:1000EB00ECF0A3EDF0A3EEF0A3EFF0A3D0E0F0A3C0
:1000FB00D0E0F0A3D0E0F0A3E520F0A3E5F0F0A36F
:10010B0022850A83850982E0C0E0A3E0F9A3E0FA27
:10011B00A3E0FBA37808E0F608A3DFFAE0FCA3E07A
:10012B00FDA3E0FEA3E0FFA3E0C0E0A3E0C0E0A3DB
:10013B00E0F5D0A3E0F520A3E0A3F5F010AF088520
:10014B00830A858209800885830A858209D2AFD00C
:10015B0082D083D0E0F8D0E03275F10075F33C75B6
:10016B00C2D875C50A43868043C480C2E9D2AF2288
:10017B0053C68075E40E43E50475DA5075DBC3C2D4
:10018B00C153AFFEC2DED2B9D2AF2289C1A2E950B0
:10019B00FCC2E922C082C0838A828B838006E0F98D
:1001AB00120196A3E070F7D083D08222C0E074F2E4
:1001BB001200ADC2AF900301E02401F0A3E03400C4
:1001CB00F0900301C3E0940AA3E09400402690034F
:1001DB00017400F0A37400F0D2F0A29030F001B3E0
:1001EB00E433FED2F0A29030F001B392907A037B0D
:1001FB000312019F53AFFED2AF7F0102010C43FEEE
:09020B000112017B12016480FE66
:040000050000008F68
:00000001FF
