:020000040000FA
:03000000020031CA
:100013000201E600000080FBE49003017806790109
:100023008002F0A3D8FCD9FA1201F712001675D09A
:100033000075813F750901750A0302001BC0D025B5
:1000430009C582C0E0E50A34FFC583C0E0E509C302
:10005300958224F310AF0885830A85820980088579
:10006300830A858209D2AFC8F0A3E9F0A3EAF0A31B
:10007300EBF0A37908E709F0A3D8FAECF0A3EDF0CD
:10008300A3EEF0A3EFF0A3D0E0F0A3D0E0F0A3D071
:10009300E0F0A3E520F0A3E5F0F0A322850A838531
:1000A3000982E0C0E0A3E0F9A3E0FAA3E0FBA378B0
:1000B30008E0F608A3DFFAE0FCA3E0FDA3E0FEA35B
:1000C300E0FFA3E0C0E0A3E0C0E0A3E0F5D0A3E03D
:1000D300F520A3E0A3F5F010AF0885830A85820914
:1000E300800885830A858209D2AFD082D083D0E08D
:1000F300F8D0E03275F10075F33C75C2D875C50AC6
:1001030043868043C480C28B438640D2AAD2AF22A7
:10011300C082C08378007900AAC1EAC0E0900304DA
:10012300E02401FCA3E03403FD8C828D83D0E0F056
:1001330074236A6010900304C3E09402A3E0940064
:1001430050030201D5900304E02400F8A3E0340334
:10015300F988828983E0F87900E824D0F8E934FF4C
:10016300F9900304E024FFFAA3E03402FB8A828BB4
:1001730083E024CF600B14601114601714601D809A
:1001830022E8FAE8A2E092908019E8FAE8A2E09265
:10019300918010E8FAE8A2E092938007E8FAE8A2D7
:1001A300E09294780079008012740128F582740338
:1001B30039F5837400F008E8700109900304C3E083
:1001C30098A3E09950E39003047400F0A37400F043
:1001D300800C900304E02401F0A3E03400F0D0830A
:1001E300D08222C0E074F2120040C28B1201137F4E
:1001F3000102009F53F4E443FE1BC290C291C293D9
:0A020300C29453C6801200F780FE7B
:0400000500000031C6
:00000001FF
